:020000040800F2
:1000000000A00020192700085D2700085D270008D0
:100010005D2700085D2700085D270008000000003C
:100020000000000000000000000000005D27000844
:100030005D270008000000005D2700085D2700081C
:100040005D2700085D2700085D2700085D27000880
:100050005D2700085D2700085D2700085D27000870
:100060005D2700085D2700085D2700085D27000860
:100070005D2700085D2700082D120008E91100081F
:100080005D2700085D2700085D2700085D27000840
:100090005D2700085D2700085D270008B51D0008E2
:1000A0005D2700085D2700085D2700085D27000820
:1000B0005D2700085D2700085D2700085D27000810
:1000C0005D2700085D2700085D2700085D27000800
:1000D0005D2700085D2700085D2700085D270008F0
:1000E0005D2700085D2700085D2700085D270008E0
:1000F0005D2700085D2700085D2700085D270008D0
:100100000000000000000000000000005D27000863
:100110005D2700085D2700085D270008B11B000867
:100120005D2700085D2700085D2700085D2700089F
:100130005D2700085D2700080000000000000000A7
:100140005D2700085D2700085D270008000000000B
:10015000000000000000000000000000000000009F
:1001600000000000000000005D2700085D27000877
:100170005D270008000000000000000000000000F3
:10018000000000005D27000880B400AF1A4A1A4B37
:100190001B6843F0010313601749174B5A68174B4C
:1001A00013404B60144A144B1B6823F0847323F4F0
:1001B00080331360104A104B1B6823F480231360B4
:1001C0000D4A0D4B5B6823F4FE0353600A4A0A4B49
:1001D000DB6A23F47F5323F03F03D3620649064BC7
:1001E0001A6B074B13400B63034B00229A6000BF4E
:1001F000BD465DF8047B70470010024000C0FFF868
:10020000CCFC000F80B483B000AF0346FB71064BFB
:1002100000221A70044AFB79137000BF0C37BD46E8
:100220005DF8047B704700BF0210024080B483B0C9
:1002300000AF0346FB71044AFB79136000BF0C3723
:10024000BD465DF8047B70470000424280B483B035
:1002500000AF786039600A4A094B5B6823F4741375
:1002600053600748064B5A6879683B680B43134351
:10027000436000BF0C37BD465DF8047B704700BF8C
:100280000010024080B483B000AF0346FB71044A03
:10029000FB79136000BF0C37BD465DF8047B7047E7
:1002A0006000424280B485B000AF78600023FB60FC
:1002B000094B5B68FB60FB6823F00303FB60FA6893
:1002C0007B681343FB60044AFB68536000BF14372C
:1002D000BD465DF8047B70470010024080B400AF5B
:1002E000054B5B68DBB203F00C03DBB21846BD467E
:1002F0005DF8047B704700BF0010024080B485B0F9
:1003000000AF78600023FB60094B5B68FB60FB6813
:1003100023F0F003FB60FA687B681343FB60044A38
:10032000FB68536000BF1437BD465DF8047B70471F
:100330000010024080B485B000AF78600023FB60FD
:10034000094B5B68FB60FB6823F4E063FB60FA68C1
:100350007B681343FB60044AFB68536000BF14379B
:10036000BD465DF8047B70470010024080B485B044
:1003700000AF78600023FB600A4B5B68FB60FB68A2
:1003800023F46053FB607B68DB00FA681343FB6077
:10039000044AFB68536000BF1437BD465DF8047B18
:1003A000704700BF0010024080B48BB000AF78608F
:1003B00000233B620023FB610023BB6100237B61C0
:1003C00000233B6100237B620023FB600023BB60B2
:1003D000924B5B6803F00C033B623B6A042B07D033
:1003E000082B09D0002B30D17B688D4A1A6030E091
:1003F0007B688B4A1A602CE0884B5B6803F47013AF
:10040000FB61864B5B6803F48033BB61FB699B0C2B
:100410000233FB61BB69002B05D1FB69814A02FBFA
:1004200003F37B620DE07D4BDB6A03F00F030133C6
:100430007B617B4A7B69B2FBF3F3FA6902FB03F34E
:100440007B627B687A6A1A6003E07B68744A1A6090
:1004500000BF724B5B6803F0F0033B623B6A1B0911
:100460003B62714A3B6A13441B78DBB2BB607B681A
:100470001A68BB68DA407B685A60684B5B6803F4B3
:10048000E0633B623B6A1B0A3B62674A3B6A134478
:100490001B78DBB23B617B685A683B69DA407B685A
:1004A0009A605E4B5B6803F460533B623B6ADB0A15
:1004B0003B625D4A3B6A13441B78DBB2FB607B689E
:1004C0005A68FB68DA407B68DA60544BDB6A03F4F5
:1004D000F8733B623B6A1B093B62544A3B6A32F841
:1004E00013309BB23B613B6903F01003002B06D035
:1004F0007A6A3B69B2FBF3F27B681A6103E07B68BE
:100500001A687B681A61454BDB6A03F478533B62D7
:100510003B6A5B0A3B62454A3B6A32F813309BB246
:100520003B613B6903F01003002B06D07A6A3B69FC
:10053000B2FBF3F27B685A6103E07B681A687B6860
:100540005A61364B1B6B03F01003002B03D17B6801
:10055000334A9A6103E07B681A687B689A612F4B83
:100560001B6B03F02003002B03D17B682C4ADA615C
:1005700003E07B681A687B68DA61284B1B6B03F425
:100580008073002B0DD07B681A687B6A9A4208D171
:10059000FA68BB689A4204D17B6A5A007B681A6287
:1005A00003E07B68DA687B681A621C4B1B6B03F400
:1005B0000073002B0DD07B681A687B6A9A4208D1C1
:1005C000FA68BB689A4204D17B6A5A007B685A6217
:1005D00003E07B68DA687B685A62104B1B6B03F0A0
:1005E0000303002B04D17B68DA687B689A6228E0F9
:1005F0000A4B1B6B03F00303012B04D17B681A68C1
:100600007B689A621DE0054B1B6B03F00303022B12
:100610000ED17B684FF400429A6212E00010024053
:1006200000127A0000093D000000002010000020A8
:10063000614B1B6B03F00303032B02D17B685F4A02
:100640009A625D4B1B6B03F44033002B04D17B6833
:100650009A687B68DA6221E0574B1B6B03F44033E6
:10066000B3F5803F04D17B681A687B68DA6215E0D5
:10067000514B1B6B03F44033B3F5003F04D17B684F
:100680004FF40042DA6209E04B4B1B6B03F440333A
:10069000B3F5403F02D17B68484ADA62464B1B6B98
:1006A00003F44023002B04D17B689A687B681A63AB
:1006B00021E0414B1B6B03F44023B3F5802F04D1A1
:1006C0007B681A687B681A6315E03B4B1B6B03F46D
:1006D0004023B3F5002F04D17B684FF400421A6326
:1006E00009E0354B1B6B03F44023B3F5402F02D1D7
:1006F0007B68324A1A63304B1B6B03F44013002BA8
:1007000004D17B689A687B685A6321E02A4B1B6B93
:1007100003F44013B3F5801F04D17B681A687B682B
:100720005A6315E0244B1B6B03F44013B3F5001F11
:1007300004D17B684FF400425A6309E01E4B1B6BE7
:1007400003F44013B3F5401F02D17B681B4A5A6380
:10075000194B1B6B03F44003002B04D17B689A6890
:100760007B689A6321E0144B1B6B03F44003B3F5E1
:10077000800F04D17B681A687B689A6315E00E4B82
:100780001B6B03F44003B3F5000F04D17B684FF4F7
:1007900000429A6309E0084B1B6B03F44003B3F576
:1007A000400F02D17B68054A9A6300BF2C37BD46D3
:1007B0005DF8047B704700BF0010024000127A0011
:1007C00080B485B000AF78600023FB607B681B0FAE
:1007D000FB60FB68002B06D00C4A0C4BDB6A23F451
:1007E0007853D36205E0094A084BDB6A23F4F873B7
:1007F000D3620649054BDA6A7B681343CB6200BFBC
:100800001437BD465DF8047B704700BF00100240FE
:1008100080B483B000AF7860044A7B68136000BF87
:100820000C37BD465DF8047B704700BFDC004242D8
:1008300080B483B000AF78600B46FB70FB78002B70
:1008400006D00A49094B5A697B6813434B6106E09D
:100850000649064B5A697B68DB4313404B6100BF76
:100860000C37BD465DF8047B704700BF00100240A6
:1008700080B483B000AF78600B46FB70FB78002B30
:1008800006D00A49094B9A697B6813438B6106E0DD
:100890000649064B9A697B68DB4313408B6100BFB6
:1008A0000C37BD465DF8047B704700BF0010024066
:1008B00080B483B000AF78600B46FB70FB78002BF0
:1008C00006D00A49094BDA697B681343CB6106E01D
:1008D0000649064BDA697B68DB431340CB6100BFF6
:1008E0000C37BD465DF8047B704700BF0010024026
:1008F00080B487B000AF0346FB710023FB60002388
:100900007B610023FB74FB795B09DBB2FB60FB6856
:10091000002B03D1164B1B687B6110E0FB68012B99
:1009200003D1134B1B6A7B6109E0FB68042B03D1E5
:100930000F4B5B687B6102E00D4B5B6A7B61FB796F
:1009400003F01F03FB607A69FB6822FA03F303F0EC
:100950000103002B02D00123FB7401E00023FB7490
:10096000FB7C18461C37BD465DF8047B704700BF12
:100970000010024080B400AF084B1B6903F08003F5
:10098000002B05D0054B064A5A60044B054A5A60B5
:1009900000BFBD465DF8047B704700BF00200240E9
:1009A00023016745AB89EFCD80B400AF054A054B05
:1009B0001B6943F08003136100BFBD465DF8047BF3
:1009C000704700BF0020024080B584B000AF78605F
:1009D0000423FB734FF4302000F0ACF80346FB73A4
:1009E000FB7B042B1AD1104A0F4B1B6943F0020307
:1009F00013610D4A7B6853610B4A0B4B1B6943F033
:100A0000400313614FF4302000F094F80346FB7369
:100A1000054A054B1B6923F002031361FB7B184653
:100A20001037BD4680BD00BF0020024080B584B0B5
:100A300000AF786039600423FB730023BB604FF480
:100A4000302000F077F80346FB73FB7B042B2ED19C
:100A5000194A194B1B6943F0010313617B683A681B
:100A600092B21A804FF4302000F064F80346FB7312
:100A7000FB7B042B15D17B680233BB60BB681A4635
:100A80003B681B0C9BB213804FF4302000F052F8EF
:100A90000346FB73084A084B1B6923F001031361EB
:100AA00005E0054A044B1B6923F001031361FB7B3E
:100AB00018461037BD4680BD0020024080B483B088
:100AC00000AF7860044A7B68D36000BF0C37BD4636
:100AD0005DF8047B704700BF0020024080B483B003
:100AE00000AF0423FB71124BDB6803F00103002B02
:100AF00002D00123FB7113E00D4BDB6803F0100300
:100B0000002B02D00223FB710AE0094BDB6803F0E3
:100B10000403002B02D00323FB7101E00423FB71CB
:100B2000FB7918460C37BD465DF8047B704700BF63
:100B30000020024080B584B000AF78600423FB73CE
:100B4000FFF7CCFF0346FB7306E0FFF7C7FF034642
:100B5000FB737B68013B7B60FB7B012B02D17B68D5
:100B6000002BF2D17B68002B01D10523FB73FB7BAB
:100B700018461037BD4680BD80B485B000AF7860A0
:100B800039600023FB607B68DB68FB60FA681A4B06
:100B90001340FB603B681A683B685B681A433B681C
:100BA0009B681A433B68DB681A433B681B691A431E
:100BB0003B685B691A433B689B691343FA681343BC
:100BC000FB607B68FA68DA607B681B6BFB60FB6824
:100BD00023F00F03FB603B681B7F013B1A46FB6859
:100BE0001343FB607B68FA681A6300BF1437BD4685
:100BF0005DF8047B704700BF07C0FFFD80B485B07F
:100C000000AF786039600023FB607B68B3F1A04FD0
:100C100003D07B681C4A934207D11C4B9B68FB6046
:100C2000FA681B4B1340FB6006E01A4B9B68FB60A5
:100C3000FA68174B1340FB603B681A683B685B68B7
:100C40001A433B689B681A433B68DB681B031A43E3
:100C50003B681B7C1B021343FA681343FB607B68F1
:100C6000B3F1A04F03D07B68074A934203D1074AF0
:100C7000FB68936002E0074AFB68936000BF14378B
:100C8000BD465DF8047B7047000100500003005032
:100C9000E010FCFF0007005080B483B000AF786024
:100CA0000B46FB70FB78002B06D07B689B6843F0FB
:100CB00001027B689A6005E07B689B6843F0020252
:100CC0007B689A6000BF0C37BD465DF8047B7047B7
:100CD00080B485B000AF7860084611461A460346D6
:100CE000FB700B46BB7013467B700023FB60002338
:100CF000BB60BB78042B21D87B681B6BFB60BA7888
:100D000013465B0013445B001A461F239340BB60ED
:100D1000BB68DB43FA681340FB60F978BA78134686
:100D20005B0013445B0001FA03F3BB60FA68BB6825
:100D30001343FB607B68FA681A6374E0BB78092B85
:100D400023D87B685B6BFB60BB785A1F13465B0044
:100D500013445B001A461F239340BB60BB68DB4310
:100D6000FA681340FB60F978BB785A1F13465B00A2
:100D700013445B0001FA03F3BB60FA68BB681343DA
:100D8000FB607B68FA685A634DE0BB780E2B25D870
:100D90007B689B6BFB60BB78A3F10A0213465B0088
:100DA00013445B001A461F239340BB60BB68DB43C0
:100DB000FA681340FB60F978BB78A3F10A02134686
:100DC0005B0013445B0001FA03F3BB60FA68BB6885
:100DD0001343FB607B68FA689A6324E07B68DB6BF3
:100DE000FB60BB78A3F10F0213465B0013445B006A
:100DF0001A461F239340BB60BB68DB43FA6813406D
:100E0000FB60F978BB78A3F10F0213465B00134433
:100E10005B0001FA03F3BB60FA68BB681343FB6035
:100E20007B68FA68DA63FB78092B23D97B689B69B6
:100E3000FB60FB78A3F10A0213465B001344072210
:100E400002FA03F3BB607B689A69BB68DB431A4014
:100E50007B689A617B6899697878FB78A3F10A02CC
:100E600013465B00134400FA03F341EA03027B6874
:100E70009A611FE07B685B69FB60FB785A1E134632
:100E80005B001344382202FA03F3BB607B685A69A3
:100E9000BB68DB431A407B685A617B685969787884
:100EA000FA7813465B00134400FA03F341EA0302A5
:100EB0007B685A6100BF1437BD465DF8047B7047FC
:100EC00080B483B000AF78607B689B6843F0040215
:100ED0007B689A6000BF0C37BD465DF8047B7047A5
:100EE00080B483B000AF78607B681B6C9BB21846FF
:100EF0000C37BD465DF8047B704700BF80B483B0FB
:100F000000AF78600B46FB70FB78002B06D07B6847
:100F1000DB6843F001027B68DA6005E07B68DB6830
:100F200023F001027B68DA6000BF0C37BD465DF834
:100F3000047B704780B483B000AF786039607B6811
:100F4000DB6823F002027B68DA607B68DA683B6862
:100F50001A437B68DA6000BF0C37BD465DF8047B3E
:100F6000704700BF80B487B000AF7860396000235D
:100F70007B6100233B610023FB6000237B617EE0FB
:100F800001227B6902FA03F33B613B681A683B6903
:100F90001340FB60FA683B699A426DD13B681B794C
:100FA000012B03D03B681B79022B36D17B689A68F2
:100FB0007B695B00032101FA03F3DB431A407B6882
:100FC0009A607B689A683B685B7919467B695B002D
:100FD00001FA03F31A437B689A607B689B889AB294
:100FE0007B699BB2012101FA03F39BB2DB439BB205
:100FF00013409AB27B689A807B689B889BB21AB236
:101000003B689B7919467B699BB201FA03F31BB2DB
:1010100013431BB29AB27B689A807B681A687B691B
:101020005B00032101FA03F3DB431A407B681A607B
:101030007B681A683B681B7919467B695B0001FA7B
:1010400003F31A437B681A607B68DA687B699BB29A
:101050005B00032101FA03F3DB431A407B68DA608B
:101060007B68DA683B68DB7919467B695B0001FACB
:1010700003F31A437B68DA607B6901337B617B6928
:101080000F2B7FF67DAF00BF1C37BD465DF8047B9C
:10109000704700BF80B485B000AF78600B467B809E
:1010A0000023FB737B681B8A9AB27B8813409BB238
:1010B000002B02D00123FB7301E00023FB73FB7BB9
:1010C00018461437BD465DF8047B704780B485B080
:1010D00000AF78600B467B8013467B700023FB607B
:1010E0000023BB607A787B8803F007039B0002FA39
:1010F00003F3FB607B88DB089BB218467B88DB0828
:101100009BB21A467B68083253F822207B8803F092
:1011100007039B000F2101FA03F3DB4302EA0301FB
:101120007B6800F1080243F822107B88DB089BB241
:101130001A467B68083253F82220FB681343BB60D1
:101140007B88DB089BB21A467B680832B96843F893
:10115000221000BF1437BD465DF8047B704700BF06
:1011600080B500AF01F088FC00F0C2F900F0EAFDA4
:1011700001F078F901F016FA00F0E6FC01F0FEF952
:101180000246144B1A60002000F05CFA03465AB283
:10119000114B1A70104B93F9003007EE903AF8EEAD
:1011A000E77AB2EE087AC7EE876AF0EE660AB0EE2A
:1011B000000A01F0C3FCF0EE407A084BC3ED007A60
:1011C0009FED070A01F010FBF0EE407A054BC3EDEE
:1011D000047AFEE7740400203C0500203000002063
:1011E0000000FA439804002080B500AF4FF480203F
:1011F00000F03AF90346002B07D00221002000F04E
:101200001DF84FF4802000F059F94FF4003000F041
:101210002BF90346002B07D00621042000F00EF81E
:101220004FF4003000F04AF900BF80BD80B500AF38
:101230004FF4005000F042F900BF80BD80B586B089
:1012400000AF03460A46FB711346BB71FB79424A65
:1012500032F813301B02FA7901323F4931F812207B
:10126000120A92B213437B617B6903F40003002BE3
:1012700003D07B6943F07F437B61384B93F90030A7
:10128000002B51D0364A7B699360354B93ED047A3D
:10129000334B5A68324B9B681A44314BDB68D31A84
:1012A00007EE903AF8EEE77A67EE277AFDEEE77AF6
:1012B00017EE902A2A4B1A60294B9B68284AD36064
:1012C000274B1B68264A5360264B1B6807EE903A53
:1012D000B8EE677ADFED246AC7EE267AC7ED037AA7
:1012E0001F4B1B68184601F0C9FA38613B6907EECD
:1012F000903AB8EEE77AD7ED037A27EE277A7B6942
:1013000007EE903AF8EEE76AB7EE006AD7ED037A97
:1013100076EE677A66EEA77A77EE277AFDEEE77AC1
:1013200017EE903A3B6101E07B693B61BB793A691A
:10133000120A91B20D4A22F81310BB7901333A69AF
:10134000120292B222F0FF0291B2084A22F8131060
:1013500000BF1837BD4680BD880400203C05002032
:10136000980400207404002000F07F4578040020D9
:1013700080B485B000AF786039600023FB607B6883
:101380001B68FB60FB6823F4FF4323F07003FB60E2
:101390003B689A683B681B6A1A433B681B691A439F
:1013A0003B685B691A433B689B691A433B68DB698E
:1013B0001A433B685B6A1A433B689B6A1343FA68AB
:1013C0001343FB607B68FA681A603B689B891A4686
:1013D0007B685A603B681A687B689A603B685A6809
:1013E0007B68DA6000BF1437BD465DF8047B704748
:1013F00080B483B000AF78600B46FB70FB78002BA5
:1014000006D07B681B6843F001027B681A6006E027
:101410007B681A684FF6FE7313407A68136000BF4A
:101420000C37BD465DF8047B704700BF80B485B0C3
:1014300000AFF860B9601346FB71FB79002B06D052
:10144000FB681A68BB681A43FB681A6006E0FB6811
:101450001A68BB68DB431A40FB681A6000BF143788
:10146000BD465DF8047B704780B485B000AF7860FE
:101470000023FB730023BB607B6803F08053002BC9
:1014800003D00C4B1B68BB6002E00B4B1B68BB60BE
:10149000BA687B681340002B02D00123FB7301E084
:1014A0000023FB73FB7B18461437BD465DF8047BB5
:1014B000704700BF000402400000024080B483B0C7
:1014C00000AF78607B6803F08053002B03D0064A9E
:1014D0007B68536002E0054A7B68536000BF0C37AD
:1014E000BD465DF8047B70470004024000000240E6
:1014F00080B500AF01214FF4F010FFF799F9364B9A
:101500004FF470421A60344B02221A71324B02229D
:101510005A71314B00229A712F4B0122DA712E49F8
:101520002E48FFF71FFD2C4B40221A602A492C48F9
:10153000FFF718FD05220C212848FFF7C7FD0522FB
:101540000D212648FFF7C2FD05220E212348FFF793
:10155000BDFD05220F212148FFF7B8FD0622062117
:101560001F48FFF7B3FD1C4B02221A601A4B0322DF
:101570001A7119494FF09040FFF7F4FC164B032203
:101580005A71154BFF221A60134B01221A71124B2C
:101590000022DA7110491348FFF7E4FC0E4B3822A1
:1015A0001A600D4B01221A710B4B0022DA710A49A5
:1015B0004FF09040FFF7D6FC074BC0221A60064B55
:1015C00000221A71044B0222DA7103494FF0904055
:1015D000FFF7C8FC00BF80BDE804002000040048FD
:1015E00000080048000C004880B582B000AF786069
:1015F0003960FFF7BFF93420FFF760FA0E4B022283
:101600001A600E48FFF7E0F90346042B00D0FEE70E
:101610000B4B0A4A1A600A4B1B6839681846FFF7D9
:1016200005FA0346042B00D0FEE7FFF7BDF900BF23
:101630000837BD4680BD00BF6C0400200060000874
:101640006804002080B483B000AF78607B6803F149
:10165000006303F5C043074A1360064B1B681B6811
:10166000054A1360044B1B6818460C37BD465DF8ED
:10167000047B7047680400202C00002080B485B0F3
:1016800000AF78600023FB60764BFB607B689B7942
:10169000002B00F0C8807B681B685B0903F10073B6
:1016A00003F502635B0118467B681B685B0903F165
:1016B000007303F502635B011A687B681B6803F023
:1016C0001F03012101FA03F3DB43134003607B682E
:1016D0001B685B095A01644B134418467B681B68FE
:1016E0005B095A01604B13441A687B681B6803F05E
:1016F0001F03012101FA03F3DB43134003607B68FE
:101700001B791A467B681B685B095B011344FA6806
:101710001344FB60FB68FA6812687968096801F095
:101720001F01012000FA01F10A431A604D4BFB60D2
:101730007B681B685B095A014C4B134418467B6855
:101740001B685B095A01494B13441A687B681B6884
:1017500003F01F03012101FA03F3DB43134003608D
:101760007B681B685B095A01414B134418467B6830
:101770001B685B095A013E4B13441A687B681B685F
:1017800003F01F03012101FA03F3DB43134003605D
:101790007B685B79102B2ED17B681B685B095A0133
:1017A000324B134418467B681B685B095A012F4B68
:1017B00013441B687A68126802F01F02012101FAC3
:1017C00002F2134303607B681B685B095A01284BD4
:1017D000134418467B681B685B095A01244B134469
:1017E0001B687A68126802F01F02012101FA02F2F6
:1017F000134303602FE07B685B791A467B681B68A4
:101800005B095B011344FA681344FB60FB68FA68E8
:1018100012687968096801F01F01012000FA01F1DE
:101820000A431A6017E07B681B791A467B681B68BD
:101830005B095B011344FA681344FB60FB68FA68B8
:1018400011687A68126802F01F02012000FA02F2A1
:10185000D2430A401A6000BF1437BD465DF8047BCE
:10186000704700BF00040140040401400804014027
:101870000C04014080B483B000AF78607B685B09E2
:101880005A01084B134419467B6803F01F030122D9
:1018900002FA03F30B6000BF0C37BD465DF8047B12
:1018A000704700BF1404014080B596B000AF786067
:1018B00039600023A7F84A300223A7F856300023E6
:1018C000A7F854300123A7F852300023FB6400230B
:1018D0007B647B689B8B9BB223F47B6323F00F03B9
:1018E0009AB27B689A837B6802221A847B689B8BFE
:1018F000A7F84A303B689B68022B06D10023A7F863
:1019000054300223A7F8563052E03B689B88002BE6
:1019100003D10123A7F8523002E00223A7F8523086
:1019200007F108031846FEF73FFDBB687B643B6880
:10193000DB88B3F5007F0FD17B6C1A0A13469B003E
:1019400013445B001A463B689B68B2FBF3F39BB2FF
:1019500005339BB2FB6413E0B7F852305B011A46C3
:101960007B6CB3FBF2F213469B0013445B001A46F8
:101970003B689B68B2FBF3F39BB205339BB2FB64FD
:10198000FB6C274AA2FB0323DB08FB64FB6C9BB2C6
:1019900003F00103A7F85430B7F85430FA6CD31AA7
:1019A0005B08A7F85630B7F854301B02A7F854303C
:1019B000B7F85630012B03D9B7F85630FF2B05D9AD
:1019C0000223A7F856300023A7F854303B68DA8882
:1019D000B7F8543013439AB2B7F8563013439AB25B
:1019E0007B681A843B681A883B6859883B689B88E7
:1019F0000B4399B23B689B890B439BB213439AB24A
:101A0000B7F84A3013439BB243F40063A7F84A3057
:101A10007B68B7F84A209A8300BF5837BD4680BD1F
:101A2000CDCCCCCC80B483B000AF78600B46FB70DB
:101A3000FB78002B08D07B689B8B9BB243F48063C0
:101A40009AB27B689A8307E07B689B8B9BB223F4F6
:101A500080639AB27B689A8300BF0C37BD465DF8FD
:101A6000047B704780B485B000AF78603960002394
:101A7000BB810023FB817B689B8B9BB223F47B6340
:101A800023F00F039AB27B689A837B6802221A8440
:101A90007B689B8BBB813B681B88B3F5007F03D0C1
:101AA0003B681B88002B03D14FF48073FB810BE054
:101AB0003B681B88B3F5407F04D03B681B88B3F5B7
:101AC000807F01D10023FB813B685A883B6899885D
:101AD0003B689B890B439BB213439AB2FB89134328
:101AE0009AB2BB8913439BB243F40063BB817B680A
:101AF000BA899A8300BF1437BD465DF8047B7047EE
:101B000080B483B000AF78600B467B8013467B7057
:101B10007B78002B08D07B689B889AB27B88134324
:101B20009AB27B689A8009E07B689B889AB27B882E
:101B3000DB439BB213409AB27B689A8000BF0C379C
:101B4000BD465DF8047B704780B500AF154B37226A
:101B50001A70144B0F225A70124B00229A70114BBC
:101B60000122DA700F4800F04FFB01212020FEF720
:101B70009FFE0D4B00225A800B4B64225A600A4B89
:101B80004FF461621A800849084800F0A1FB012265
:101B90000121064800F034FC0121044800F010FC4B
:101BA00000BF80BDF0040020DC04002000140040D1
:101BB00080B500AF00F0A2F900F00CF90121024855
:101BC00000F03EFC00BF80BD0014004080B483B034
:101BD00000AF03460A46FB711346BB804FF09042AC
:101BE0004FF090439B8A9BB243F038039BB29382A1
:101BF0004FF090414FF090439B8A9BB21AB2BB8842
:101C00000333012000FA03F31BB2DB431BB2134082
:101C10001BB29BB28B824A4A494B9B8A9BB223F0F0
:101C2000FF039BB29382FB79052B4CD0052B0DDC77
:101C3000022B2DD0022B04DC002B17D0012B1ED041
:101C400078E0032B2DD0042B34D073E0082B55D033
:101C5000082B04DC062B3FD0072B46D06AE0FE2B76
:101C600067D0FF2B5CD0092B51D063E0344A344B52
:101C70009B8A9BB243F0F5039BB293825AE0304AB1
:101C80002F4B9B8A9BB243F005039BB2938251E09A
:101C90002B4A2B4B9B8A9BB243F0B3039BB293829C
:101CA00048E0274A264B9B8A9BB243F097039BB29E
:101CB00093823FE0224A224B9B8A9BB243F0470328
:101CC0009BB2938236E01E4A1D4B9B8A9BB243F027
:101CD000D6039BB293822DE0194A194B9B8A9BB283
:101CE00043F0F6039BB2938224E0154A144B9B8A7F
:101CF0009BB243F085039BB293821BE0104A104BCA
:101D00009B8A9BB243F0F7039BB2938212E00C4A8A
:101D10000B4B9B8A9BB243F0D7039BB2938209E0A3
:101D2000074A074B9B8A9BB243F002039BB2938204
:101D300000E000BF00BF0C37BD465DF8047B704774
:101D4000000C004880B500AF01210120FEF790FD96
:101D50000721002000F004FD0621002000F000FD16
:101D6000124B06221A60114B00221A710F4B0822E7
:101D70005A710E4B01229A710C48FFF77FFC0B4BF6
:101D800007221A600948FFF779FC094B17221A70DD
:101D9000074B0F225A70064B0F229A70044B0122F8
:101DA000DA70034800F030FA00BF80BDF404002070
:101DB000F004002080B500AF054B01221A70062008
:101DC000FFF758FD0720FFF755FD00BF80BD00BF9E
:101DD0007104002080B500AF444B1B78012B0AD161
:101DE000434B1B780A2B06D8414B1B780133DAB2E0
:101DF0003F4B1A7077E03D4B1B78012B73D13C4B66
:101E00001B780A2B6FD980214FF09040FFF742F9E1
:101E10000346002B2AD0374B93F900300B2B25DCDF
:101E2000344B93F90030DBB20133DBB25AB2314BA1
:101E30001A70304B93F9003019460020FFF7D4FB9D
:101E40002C4B93F9003007EE903AF8EEE77AB2EEB9
:101E5000087AC7EE876AF0EE660AB0EE000A00F074
:101E60006DFEF0EE407A244BC3ED007A40214FF036
:101E70009040FFF70FF90346002B2ED01D4B93F92E
:101E8000003013F10B0F28DB1A4B93F90030DBB253
:101E9000013BDBB25AB2174B1A70164B93F9003064
:101EA00019460020FFF7A0FB0720FFF7E3FC114BCA
:101EB00093F9003007EE903AF8EEE77AB2EE087A3E
:101EC000C7EE876AF0EE660AB0EE000A00F036FE52
:101ED000F0EE407A084BC3ED007A044B00221A70F2
:101EE000034B00221A7000BF80BD00BF71040020A8
:101EF000700400203C0500203000002080B582B036
:101F000000AF604B1B78FB7197F90730DB115BB2B8
:101F1000BB7197F90620FB795340FB71BB7903F045
:101F20000103DAB2FB791344DBB2FB7197F9073096
:101F3000092B46DC544B1B78002B1CD197F907204A
:101F4000524B83FB02139910D317C91A0B469B00FF
:101F50000B445B00D31A5BB2DAB24B4B1B789BB2DB
:101F600019461046FFF732FE474B1B780133DAB2B1
:101F7000454B1A7081E0444B1B78012B12D1414B29
:101F800093F90030002B06DA3F4B1B789BB21946C1
:101F9000FF20FFF71BFE3C4B1B780133DAB23A4BB4
:101FA0001A706AE0384B1B78022B66D1364B1B78CF
:101FB0009BB21946FE20FFF709FE334B00221A7030
:101FC0005BE0314B1B78002B1CD197F907202F4B7E
:101FD00083FB02139910D317C91A0B469B000B44BD
:101FE0005B00D31A5BB2DAB2274B1B789BB219465F
:101FF0001046FFF7EBFD244B1B780133DAB2224B7E
:102000001A703AE0204B1B78012B23D197F9073047
:102010001E4A82FB03129210DB17D31A5AB21B4BD3
:1020200083FB02139910D317C91A0B469B000B446C
:102030005B00D31A5BB2DAB2134B1B789BB2194622
:102040001046FFF7C3FD104B1B780133DAB20E4B7D
:102050001A7012E00C4B1B78022B0ED1094B93F92E
:102060000030002B06DA084B1B789BB21946FF2084
:10207000FFF7ACFD044B00221A7000BF0837BD46C5
:1020800080BD00BF3C0500207204002067666666C4
:1020900080B500AF1F4A1F4BD3F8883043F470035C
:1020A000C2F888301C4A1C4B1B6843F001031360C4
:1020B0001949194B5A68194B13404B60164A164B75
:1020C0001B6823F0847323F480331360124A124B8D
:1020D0001B6823F4802313600F4A0F4B5B6823F4C3
:1020E000FE0353600C4A0C4BDB6A23F00F03D362F0
:1020F0000949094B1A6B0A4B13400B63064B00222C
:102100009A6000F00FF8034B4FF000629A6000BF36
:1021100080BD00BF00ED00E0001002400CC07FF861
:10212000CCFC00FF80B483B000AF00237B600023B1
:102130003B60334A324B1B6843F480331360304BAF
:102140001B6803F400333B607B6801337B603B68B2
:10215000002B03D17B68B3F5A06FF0D1284B1B682F
:1021600003F40033002B02D001233B6001E0002385
:102170003B603B68012B3CD1224B12221A60204A63
:102180001F4B5B6853601E4A1D4B5B6853601C4AC3
:102190001B4B5B6843F480635360194A184B5B68C0
:1021A00023F47C135360164A154B5B6843F4E81321
:1021B0005360134A124B1B6843F08073136000BFD7
:1021C0000F4B1B6803F00073002BF9D00C4A0C4B2B
:1021D0005B6823F003035360094A094B5B6843F0D3
:1021E0000203536000BF064B5B6803F00C03082B2F
:1021F000F9D100BF0C37BD465DF8047B704700BFC6
:10220000001002400020024080B487B000AF786028
:1022100000237B6100233B610F23FB607B68DB783D
:10222000002B3AD0284BDB68DB4303F4E0631B0A46
:102230007B617B69C3F104033B61FA687B6922FA25
:1022400003F3FB607B685B781A463B6902FA03F391
:102250007B617B689B781A46FB6813407A6913435D
:102260007B617B691B017B61184A7B681B787969FC
:10227000C9B213440A4683F80023144A7B681B78CA
:102280005B09DBB218467B681B7803F01F03012152
:1022900001FA03F342F820300FE00C497B681B7809
:1022A0005B09DBB218467B681B7803F01F03012231
:1022B0009A4000F1200341F8232000BF1C37BD469F
:1022C0005DF8047B704700BF00ED00E000E100E036
:1022D00080B485B000AF786039600023FB817B68F3
:1022E0001B88FB817B682D4A93420FD07B682C4A68
:1022F00093420BD07B68B3F1804F07D07B68294AAB
:10230000934203D07B68284A934208D1FB8923F08B
:102310007003FB813B685A88FB891343FB817B6810
:10232000224A93420CD07B68214A934208D0FB8911
:1023300023F44073FB813B681A89FB891343FB81BB
:102340007B68FA891A803B685A687B68DA623B6866
:102350001A887B681A857B68104A93420FD07B6885
:102360000F4A93420BD07B68124A934207D07B6896
:10237000114A934203D07B68104A934204D13B68D0
:102380009B7A9AB27B681A867B6801225A6100BFE9
:102390001437BD465DF8047B704700BF002C014038
:1023A00000340140000400400008004000100040DC
:1023B000001400400040014000440140004801403A
:1023C00080B483B000AF78600B46FB70FB78002BC5
:1023D00008D07B681B889BB243F001039AB27B68EC
:1023E0001A8007E07B681B889BB223F001039AB236
:1023F0007B681A8000BF0C37BD465DF8047B7047D0
:1024000080B483B000AF78600B467B8013467B704E
:102410007B78002B06D07B68DA687B881A437B6860
:10242000DA6007E07B68DB687A88D24392B21A40B0
:102430007B68DA6000BF0C37BD465DF8047B7047EF
:1024400080B483B000AF78600B467B807B88DB4331
:102450009BB21A467B681A6100BF0C37BD465DF817
:10246000047B704780B500AF01210120FEF7E0F941
:102470003C4B3D4A1A603D4A3A4B5A60394B002268
:102480009A60384B00225A62364B4FF480729A8120
:10249000344B4FF480729A61324B4FF48062DA61B0
:1024A000304B00221A612F4B00225A612D4B202203
:1024B0001A622C4B00229A622A492D48FEF758FFD7
:1024C00001212B48FEF794FF01214FF08050FEF7C9
:1024D000AFF94FF4A870FEF773F9264B00225A604B
:1024E000244B4FF400429A60224B0222DA60214BC7
:1024F00000221A601F4B00221A741E494FF0A040A0
:10250000FEF77CFB01214FF0A040FEF7F7FC022113
:102510004FF0A040FEF70EFD174B00229A61164BBC
:102520004FF400521A60144B00221A61124B002221
:102530009A60114B0022DA600F4B01221A770E4B82
:1025400000225A610C4B00225A600B494FF0A04008
:10255000FEF712FB01214FF0A040FEF79DFB00BFEC
:1025600080BD00BFFC040020400000507404002027
:102570000800024028050020BC04002080B500AF00
:102580000323012201214FF0A040FEF7A1FB4FF0F1
:10259000A040FEF795FC4FF0A040FEF7A1FC0346DB
:1025A000184680BD80B500AF01210120FEF740F93B
:1025B0004E4B08229A814D4B4FF480729A614B4BDF
:1025C0004FF48062DA61494B00221A61474B802246
:1025D0005A61464B20221A62444B00229A62434BB6
:1025E000434A1A60434A414B5A60404B10229A605A
:1025F0003E4B00225A623D493F48FEF7B9FE3F4B31
:102600000F221A703D4B00229A703C4B00225A70E8
:102610003A4B0122DA703948FFF7F6FD334B384A5E
:102620001A60384A314B5A60304B00229A602F4B67
:102630004FF400525A622D493348FEF799FE2F4B52
:102640000E221A702D4B00229A702C4B00225A70C9
:102650002A4B0122DA702948FFF7D6FD01214FF4F9
:102660008040FEF725F9294B00225A80274B032290
:102670009A80264B4FF40072DA80244B4AF644428B
:102680009A60224B00229A81204B4FF400721A80EC
:102690001E491F48FFF708F91C491E48FFF7E2F9D9
:1026A000012202211848FEF7C1FE01220221124830
:1026B000FEF7BCFE01211448FEF79AFE01210E48E8
:1026C000FEF796FE012201211248FFF719FA0122B6
:1026D00002210F48FFF714FA01210D48FFF7A2F974
:1026E00001210C48FFF79EF900BF80BDFC040020CB
:1026F0000C3800407804002058000240F00400200C
:102700000C3400408804002044000240AC04002047
:102710000038004000340040002103E00A4B5B58C1
:102720004350043109480A4B42189A42F6D3094AE9
:1027300002E0002342F8043B074B9A42F9D3FFF72B
:10274000A7FCFEF70DFD7047B44000080000002014
:102750006404002064040020CC430020FEE7000055
:1027600090B484B000AF03460A46FB711346BB71B8
:102770000023FB60BB7903F003039B000F2202FAE6
:1027800003F3FB601649BB799B08DBB21846144A79
:10279000BB799B08DBB2023352F82320FB68DB4392
:1027A0001A40831C41F823200D48BB799B08DBB2FB
:1027B0001C460B4ABB799B08DBB2023352F823203C
:1027C000F979BB7903F003039B0001FA03F31A4381
:1027D000A31C40F8232000BF1037BD4690BC7047B3
:1027E0000000014000000000B0B584B000AF87EDEC
:1027F000010A786801F00CF91EA3D3E9002301F067
:102800005BF903460C461A4623464FF00000184970
:1028100001F07CFA03460C461846214601F0E6FB1F
:102820000346FB60F86801F0F3F804460D46F868CB
:1028300001F0EEF80CA3D3E9002300F08BFF024671
:102840000B462046294601F061FA03460C4618461D
:10285000214601F0CBFB034607EE903AB0EE670A43
:102860001037BD46B0BD00BF6EB1194ACED4F73E99
:102870000000F03F6E861BF0F921194080B58AB048
:1028800000AF78607B683B62744B1B6874493A6A9E
:1028900041F82320734BD3ED007AB0EE670A00F0C5
:1028A0001DF9F0EE407AFDEEE77A17EE903AFB6103
:1028B00000237B62FB69B3F5FA6F04DBFB69A3F5C8
:1028C000FA637B6203E0FB6903F5FA637B62644AA7
:1028D000FB6952F8233007EE903AF8EEE77AC7ED3D
:1028E000067A5F4A7B6A52F8233007EE903AF8EE98
:1028F000E77AC7ED057A594B1A68FB69D31AB3F525
:10290000FA7F21DC554B1A68FB69D31A002B1BDBBD
:10291000554BD3ED007AB7EE007AF4EE477AF1EE3C
:1029200010FA11D04D4B1A68FB69D31A3B613B6911
:1029300007EE903AB8EEE77ADFED4C6AC7EE267AFA
:102940004B4BC3ED007A08E0444B1A68FB699A428E
:1029500003D1474B4FF000021A60404B1A687B6A64
:10296000D31AB3F5FA7F25DC3C4B1A687B6AD31A7D
:10297000002B1FDB3C4BD3ED007AB7EE007AF4EE70
:10298000477AF1EE10FA15D0344B1A687B6AD31AE5
:10299000FB60FB6807EE903AB8EEE77ADFED336A4A
:1029A000C7EE267AB7EE007A77EE677A304BC3ED42
:1029B000007A08E0294B1A687B6A9A4203D12C4BB3
:1029C0004FF07E521A602A4B93ED007AD7ED067ACB
:1029D00027EE277A264BD3ED007AF7EE006A76EEE3
:1029E000E76AD7ED057A66EEA77A77EE277AFDEEED
:1029F000E77A17EE903A3B621A4B93ED007A1A4B46
:102A0000D3ED007A77EE277A164BC3ED007A134B9D
:102A10001B680133114A1360104B1B68B3F57A6FC2
:102A200002D10E4B00221A600E4BD3ED007AB0EEAD
:102A3000670A00F053F8B0EE407ADFED0E7AB4EE9C
:102A4000E77AF1EE10FA03DB064B4FF000021A6052
:102A50003B6A18462837BD4680BD00BF40050020B0
:102A600044050020C4430020300000200000FA4349
:102A7000C843002000007A4580B500AFFDF784FB15
:102A80000020FDF7D3FB0520FDF7BCFB4FF4A011A0
:102A90004FF48030FDF7DAFB0020FDF72FFC4FF4F8
:102AA0008060FDF747FC0020FDF760FC0020FDF78B
:102AB000AFFE0120FDF7E6FB00BF1920FDF718FF70
:102AC0000346002BF9D00220FDF7ECFB00BFFDF719
:102AD00005FC0346082BFAD100BF80BD82B08DED06
:102AE000010A0199C1F3C7537F3B162B10DC002B61
:102AF0001ADB114A42FA03F001420BD04FF4800274
:102B00001A410A4422EA000200EE102A02B070477D
:102B1000802B03D09DED010A02B07047DDED017AF4
:102B200037EEA70A02B07047013301F00042EBD143
:102B300042F07E52E8E700BFFFFF7F00F0B52DEDC9
:102B4000048BB34D8BB0B0EE409AB0EE608A00F0CB
:102B500089F995F90040631CF0EE408A3CD0B4EE50
:102B6000488AF1EE10FA37D6B4EE499AF1EE10FA2F
:102B700080F1A380B5EE409AF1EE10FA32D1B5EEB5
:102B8000408AF1EE10FA1DD10123A24A009319EEFA
:102B9000100A00230192089300F03AFFCDE90201E8
:102BA00018EE100A00F034FF00220023CDE90401E2
:102BB000CDE90623002C6AD0B7EE000A0BB0BDECBD
:102BC000048BF0BDB0EE480A00F03AFD20B1B5EE3E
:102BD000C08AF1EE10FA3FD4B0EE680A0BB0BDEC3B
:102BE000048BF0BD00F02CFD0446002800F083802B
:102BF000F5EE408AF1EE10FAEED1B0EE490A00F09F
:102C00001FFD0028E8D0B0EE480A00F019FD0028AA
:102C1000E2D004237F4A009319EE100A00230893A0
:102C2000019200F0F5FECDE9020118EE100A00F065
:102C3000EFFE00260027CDE90401CDE9066795F9EE
:102C40000030022B03D0684600F05CFC28BB01F08A
:102C50001DFA2223036020E001236E4A009319EE3F
:102C6000100A00230893019200F0D2FECDE9020180
:102C700018EE100A00F0CCFE95F90030CDE9040101
:102C8000002B40F0988000220023CDE906236846FF
:102C900000F038FC002800F08980089B1BB101F08F
:102CA000F5F9089B0360DDE9060101F09FF900EEEC
:102CB000100A0BB0BDEC048BF0BDB5EE408AF1EE0E
:102CC00010FA89D10123534A009319EE100A002308
:102CD0000192089300F09CFECDE9020118EE100A63
:102CE00000F096FE4C4B0022022CCDE90401CDE908
:102CF0000623CCD160E7B0EE490A00F0A1FC002821
:102D00003FF476AFB0EE480A00F09AFC00283FF49A
:102D10006FAFF4EE688AF1EE10FA80F187803D4BD8
:102D20000894032219EE100A8DE80C0000F070FEE2
:102D3000CDE9020118EE100A00F06AFE95F90030A4
:102D4000CDE90401002B3DD1344BB5EEC09A4FF0D4
:102D50006042F1EE10FACDE906237FF574AFF6EE8E
:102D6000007A68EE277A17EE900A00F051FE0646C8
:102D70000F4647EC106B00F0C7FB304653EC102BAE
:102D8000394601F001F900283FD1254995F9003075
:102D90004FF06040CDE9060153E71046194600F0B8
:102DA000B5FF022CCDE906017FF471AF01F06EF999
:102DB0002123036071E71B490020022BCDE90601A6
:102DC000F4D064E71849B5EEC09A0020F1EE10FA8D
:102DD000CDE906017FF535AFF6EE007A68EE277A89
:102DE00017EE900A00F014FE06460F4647EC106BF3
:102DF00000F08AFB304653EC102B394601F0C4F842
:102E000018B9084B0022CDE9062395F9003018E7E0
:102E100034000020984000080000F03FFFFFEF471B
:102E2000FFFFEFC70000F0FF0000F07F0C4B08949D
:102E3000012219EE100A8DE80C0000F0E9FDCDE941
:102E4000020118EE100A00F0E3FD95F90040CDE90B
:102E5000040100220023002C9FD1CDE9062316E7B0
:102E6000984000082DE9F0472DED028B82B0CDEDA2
:102E7000000A009C8DED010A34F0004614D0DDF804
:102E8000048028F00047B7F1FF4F07DD584802B033
:102E9000BDEC028BBDE8F04700F0DCBBB6F1FF4FA4
:102EA00009DDB7F17E5FF1D1B7EE000A02B0BDECEB
:102EB000028BBDE8F087B8F1000F4DDB4FF0000A40
:102EC000B6F1FF4F3FD0B6F17E5F58D0B4F1804FDE
:102ED0006ED0019DDDF80090B4F17C5F00EE105AD9
:102EE0001CD000F0A5FBB7F1FF4F4DD0002F4BD009
:102EF000B7F17E5F48D04FEAD873013B5AEA03022C
:102F00006ED0B6F19A4F7BDD3A4A974200F3D181F9
:102F1000002CC0F2D4819FED380AC7E7B8F1000F4A
:102F20004BDA00F085FBB7F1FF4F01D0002FDFD166
:102F3000A7F17E5757EA0A034DD0BAF1010FB5D178
:102F4000B1EE400AB2E7B7F17E5FADD029DD002CCB
:102F5000E1DB9DED000AA9E7B6F1974F1EDAB6F165
:102F60007E5F09DBF315C3F1960346FA03F202FA1A
:102F700003F39E4200F098814FF0000AA3E7002C73
:102F800022DB9DED010A91E7002CBCBFF7EE007A31
:102F900087EE800AB8F1000F88DAC9E74FF0020A1D
:102FA0008EE7002CB7DADDED007AB1EE670A7DE737
:102FB000DDED017A27EEA70A78E702B0BDEC028BBF
:102FC000BDE8F04700F04CBA9DED017AF7EE007ACB
:102FD00087EE870A6AE770EE407A87EEA70A65E710
:102FE00007EE905A77EEE77A87EEA70A5EE700BF12
:102FF0009C400008F7FF7F3F000000000000804B6E
:10300000B7F5000F80F268815FED047A60EE277AF1
:103010006FF0170217EE907AF248F915C7F316070A
:103020007F3987420A4447F07E5140F34D81EE4894
:10303000874240F39B819FEDED4A0132A1F50001EB
:10304000B0EE443A0020B7EE006A07EE101A77EEB1
:10305000067AF7EE006AC6EEA75A491041F0005111
:1030600001F58021014477EE466A02EE101A66EE01
:10307000A53A72EE464ADFEDDE8A9FEDDE8ADFED8D
:10308000DE1A9FEDDE0ADFEDDE0A9FEDDE1ADFEDD0
:10309000DE7ADFEDDE2A23EEA36A13EE901AA6EEA7
:1030A000288A21F47F6121F00F0137EE647AF0EE77
:1030B000614A05EE101AE6EE084AF1EE451AE1EE15
:1030C000826AA6EE240AE1EE876AE6EE000A66EE60
:1030D000A55AF0EE416AE6EE206A33EE857A26EED6
:1030E000066A27EE257AF0EE084AA6EE267AF0EE7A
:1030F000646AE5EE056A9FEDC62A36EE876A06EE3B
:10310000902A16EE102A22F47F6222F00F0206EEB9
:10311000102A76EE644AF8EEE66AE1EE854A37EE6A
:10312000647A27EE237AA5EE867AF0EE475AE5EE2A
:10313000065A15EE902A22F47F6222F00F0205EE65
:10314000102AA1EE865A05EE902A37EE457A67EEF0
:10315000277AE5EEA27A77EE837AB0EE677AA5EE6B
:10316000827A37EE047A37EE267A17EE102A22F4A6
:103170007F6222F00F0207EE102A77EE666A36EEC3
:10318000C47AA5EEC27A37EEC77A24F47F6424F0BD
:103190000F0407EE909A06EE904A27EE277A06EE85
:1031A000104A77EEE67A06EE902A66EE866A06EE1A
:1031B000102AA6EE277A0AF1FF3A5AEA0303BFEE75
:1031C000000A37EE266AF7EE007A16EE102A14BFD0
:1031D000B0EE678AB0EE408A002A22F0004340F346
:1031E000B280B3F1864F00F3848077D0B3F17C5F77
:1031F00000F386800023184622F47F6222F00F023B
:1032000005EE902A9FED836ADFED837ADFED832A56
:103210009FED833A9FED832ADFED833A9FED834A4A
:10322000DFED834A75EEE66AB7EE005A37EE667A4E
:1032300065EE866AB0EE006AE7EE276AB0EE667A5F
:10324000E5EEA26A66EEA67AF0EE661AE5EEE21AFE
:10325000F0EE435AE7EE825A37EE617AE7EEA53A8E
:10326000A6EE877AA7EEA34AE7EE844AF0EE645A08
:10327000F0EE664AE7EEE54A66EEA45A34EEC66A18
:10328000C5EE867A37EEC77A77EE666A35EE660A5D
:1032900010EE102A1344B3F5000FC0F29F8000EE29
:1032A000103A20EE080A01E602F00102C2F1020A19
:1032B00009E6604A974262DD002C7FF72CAE9FED55
:1032C0005E0A20EE000AF1E59FED484A0020B0EECC
:1032D000443AB7EE006AB8E600229DE6DFED577A81
:1032E00036EE666A77EE277AF4EEC67AF1EE10FAD9
:1032F00006DD9FED510A68EE007A27EE800AD5E5DB
:10330000DB154FF400017E3B41FA03F39918C1F33A
:10331000C7504B4C7F380441C1F3160321EA040126
:1033200007EE901A76EEE76A43F40003C0F1170047
:1033300043FA00F0002A77EE267AB8BF4042C30570
:1033400017EE902A58E73F498B4208DC7FF44EAFD6
:1033500036EE666AB4EEC67AF1EE10FAD0D89FED7A
:103360003A0A68EE007A27EE800A9FE59FED374A19
:103370009FED373A4FF40010B7EE086A65E6F7EEB6
:10338000007A30EE670A9FED1D6ADFED327A9FED1D
:10339000325ADFED325AF1EE406AB5EE007AA6EE0F
:1033A000876AB6EE007AA6EE867A20EE006A27EEED
:1033B000067A67EEC77AE0EE057AB0EE677AA0EE9D
:1033C000257A17EE102A22F47F6222F00F0207EE10
:1033D000102AA6EEA57A37EEC77AD6E600F040F9B5
:1033E0005FE700BF71C41C00D6B35D0000000000A1
:1033F00042F1533E55326C3E05A38B3EABAAAA3E2A
:10340000B76DDB3E9A99193F4F38763FA0C39D3682
:103410000038763F8CBEBF351872313F0072313FA5
:103420000EEADDB54CBB313355B38A38610B36BB80
:10343000ABAA2A3E0700803FCAF249713CAA383342
:10344000FFFF7F00000016436042A20D00C0153F41
:10345000DCCFD1353BAAB83F70A5EC3600AAB83F07
:1034600010EE103A23F00042B2F1FF4F70B430D2A8
:103470006AB3002B3DDBB2F5000F4FEAE3502CD3CB
:10348000A0F17F02C3F31603D10743F4000348BF42
:103490005B00002456105B00254619214FF0807216
:1034A000A818984202DC1B1A8518144401394FEA07
:1034B00043034FEA5202F3D113B104F001031C4459
:1034C000641004F17C5404EBC65300EE103A70BC57
:1034D0007047A0EE000A70BC704713F4000201D0E0
:1034E0000CE00A465B001C0202F10101F9D5801ACA
:1034F000C6E770EE407A87EEA70AE8E74FF0FF32A2
:10350000F5E700BF00207047F0B553EC102BC3F374
:103510000A56A6F2FF30132883B019464FEAD37437
:1035200010EE105A2FDC002849DB3F4E064103EA1B
:10353000060717432CD0760833401D430CD04FF4B8
:103540008023132821EA060643FA00F141EA060126
:103550000CBF4FF000450025344800EBC4042A4658
:10356000D4E9004510462B46224600F0F3F8CDE999
:10357000000122462B46DDE9000100F0E9F841ECAC
:10358000100B03B0F0BD332806DDB0F5806F42D0DC
:1035900043EC102B03B0F0BDA6F213464FF0FF3002
:1035A000F0400242F4D040080242D5D04FF08043B0
:1035B00025EA000043FA06F646EA0005CCE723F0C8
:1035C0000040104310EE107AE2D0C3F3130007431B
:1035D000784207431548590C3F0B490407F400276C
:1035E00000EBC40047EA0103D0E900671946104622
:1035F0003B46324600F0AEF8CDE900013B4632468C
:10360000DDE9000100F0A4F821F0004343EAC471B1
:1036100041EC100BBEE710EE100A194600F09AF8C4
:1036200041EC100BB6E700BFFFFF0F00A040000801
:1036300010EE103A23F0004300EE103A704700BF3E
:1036400010EE103A23F00040B0F1FF4FACBF002065
:10365000012070479FED010A704700BF0000C07F46
:1036600008B510EE103A33F000422DED028B11D068
:10367000B2F1FF4F11D2B2F5000F13D3D20D0244B5
:10368000FE2A2EDC002A1ADD23F0FF4343EAC25350
:1036900000EE103ABDEC028B08BDBDEC028B30EEA3
:1036A000000A08BD1D4BDFED1E7A984220EE270A66
:1036B00022DB10EE103AC3F3C752193ADFE712F1DA
:1036C000160F1EDA4CF2503398420ADC9FED158A31
:1036D000F0EE400AB0EE480A00F02AF820EE080AA0
:1036E000D8E79FED118AF0EE400AB0EE480A00F0EC
:1036F0001FF820EE080ACDE7DFED0A0A20EE200AC7
:10370000C8E7193223F0FF4343EAC253DFED077ADB
:1037100000EE103A20EE270ABCE700BFB03CFFFFE6
:103720000000004C6042A20DCAF249710000003353
:1037300010EE103A23F0004210EE903A03F00043EE
:10374000134300EE103A704781F0004102E000BFE1
:1037500083F0004330B54FEA41044FEA430594EA51
:10376000050F08BF90EA020F1FBF54EA000C55EA8C
:10377000020C7FEA645C7FEA655C00F0E2804FEA5D
:103780005454D4EB5555B8BF6D420CDD2C4480EA3F
:10379000020281EA030382EA000083EA010180EA6F
:1037A000020281EA0303362D88BF30BD11F0004FBD
:1037B0004FEA01314FF4801C4CEA113102D04042F3
:1037C00061EB410113F0004F4FEA03334CEA13332E
:1037D00002D0524263EB430394EA050F00F0A78046
:1037E000A4F10104D5F1200E0DDB02FA0EFC22FA41
:1037F00005F2801841F1000103FA0EF2801843FA35
:1038000005F359410EE0A5F120050EF1200E012A25
:1038100003FA0EFC28BF4CF0020C43FA05F3C01863
:1038200051EBE37101F0004507D54FF0000EDCF1DC
:10383000000C7EEB00006EEB0101B1F5801F1BD385
:10384000B1F5001F0CD349085FEA30004FEA3C0C89
:1038500004F101044FEA445212F5800F80F09A807F
:10386000BCF1004F08BF5FEA500C50F1000041EB83
:10387000045141EA050130BD5FEA4C0C404141EB87
:10388000010111F4801FA4F10104E9D191F0000FAE
:1038900004BF01460020B1FA81F308BF2033A3F131
:1038A0000B03B3F120020CDA0C3208DD02F1140C28
:1038B000C2F10C0201FA0CF021FA02F10CE002F163
:1038C0001402D8BFC2F1200C01FA02F120FA0CFC5C
:1038D000DCBF41EA0C019040E41AA2BF01EB0451A5
:1038E000294330BD6FEA04041F3C1CDA0C340EDCA3
:1038F00004F11404C4F1200220FA04F001FA02F3E6
:1039000040EA030021FA04F345EA030130BDC4F1A3
:103910000C04C4F1200220FA02F001FA04F340EA98
:103920000300294630BD21FA04F0294630BD94F049
:10393000000F83F4801306BF81F480110134013D30
:103940004EE77FEA645C18BF7FEA655C29D094EAA1
:10395000050F08BF90EA020F05D054EA000C04BF1F
:103960001946104630BD91EA030F1EBF002100200A
:1039700030BD5FEA545C05D14000494128BF41F0A9
:10398000004130BD14F580043CBF01F5801130BD0D
:1039900001F0004545F0FE4141F470014FF0000098
:1039A00030BD7FEA645C1ABF194610467FEA655C49
:1039B0001CBF0B46024650EA013406BF52EA0335EB
:1039C00091EA030F41F4002130BD00BF90F0000FD9
:1039D00004BF0021704730B54FF4806404F1320415
:1039E0004FF000054FF0000150E700BF90F0000FCE
:1039F00004BF0021704730B54FF4806404F13204F5
:103A000010F0004548BF40424FF000013EE700BFC4
:103A100042004FEAE2014FEA31014FEA02701FBF54
:103A200012F07F4393F07F4F81F06051704792F026
:103A3000000F14BF93F07F4F704730B54FF46074A0
:103A400001F0004521F0004120E700BF50EA0102EB
:103A500008BF704730B54FF000050AE050EA010298
:103A600008BF704730B511F0004502D5404261EB08
:103A700041014FF4806404F132045FEA915C3FF449
:103A8000DCAE4FF003025FEADC0C18BF03325FEAE2
:103A9000DC0C18BF033202EBDC02C2F1200300FA97
:103AA00003FC20FA02F001FA03FE40EA0E0021FABC
:103AB00002F11444C1E600BF70B54FF0FF0C4CF4A6
:103AC000E06C1CEA11541DBF1CEA135594EA0C0F5C
:103AD00095EA0C0F00F0DEF82C4481EA030621EA97
:103AE0004C5123EA4C5350EA013518BF52EA0335D2
:103AF00041F4801143F4801338D0A0FB02CE4FF084
:103B00000005E1FB02E506F00042E0FB03E54FF0B3
:103B10000006E1FB03569CF0000F18BF4EF0010EAB
:103B2000A4F1FF04B6F5007F64F5407404D25FEAA7
:103B30004E0E6D4146EB060642EAC62141EA55515A
:103B40004FEAC52040EA5E504FEACE2EB4F1FD0C9C
:103B500088BFBCF5E06F1ED8BEF1004F08BF5FEA1A
:103B6000500E50F1000041EB045170BD06F00046CC
:103B700046EA010140EA020081EA0301B4EB5C0479
:103B8000C2BFD4EB0C0541EA045170BD41F4801171
:103B90004FF0000E013C00F3AB8014F1360FDEBF96
:103BA000002001F0004170BDC4F10004203C35DA72
:103BB0000C341BDC04F11404C4F1200500FA05F3F5
:103BC00020FA04F001FA05F240EA020001F0004296
:103BD00021F0004110EBD37021FA04F642EB06010C
:103BE0005EEA430E08BF20EAD37070BDC4F10C0436
:103BF000C4F1200500FA04F320FA05F001FA04F2FA
:103C000040EA020001F0004110EBD37041F10001E5
:103C10005EEA430E08BF20EAD37070BDC4F12005F0
:103C200000FA05F24EEA020E20FA04F301FA05F258
:103C300043EA020321FA04F001F0004121FA04F200
:103C400020EA020000EBD3705EEA430E08BF20EAD0
:103C5000D37070BD94F0000F0FD101F0004640000A
:103C600041EB010111F4801F08BF013CF7D041EA8C
:103C7000060195F0000F18BF704703F00046520090
:103C800043EB030313F4801F08BF013DF7D043EA61
:103C90000603704794EA0C0F0CEA135518BF95EA17
:103CA0000C0F0CD050EA410618BF52EA4306D1D19E
:103CB00081EA030101F000414FF0000070BD50EABD
:103CC000410606BF1046194652EA430619D094EA47
:103CD0000C0F02D150EA013613D195EA0C0F05D131
:103CE00052EA03361CBF104619460AD181EA030185
:103CF00001F0004141F0FE4141F470014FF000003D
:103D000070BD41F0FE4141F4780170BD70B54FF0D7
:103D1000FF0C4CF4E06C1CEA11541DBF1CEA135557
:103D200094EA0C0F95EA0C0F00F0A7F8A4EB050439
:103D300081EA030E52EA03354FEA013100F0888030
:103D40004FEA03334FF0805545EA131343EA1263F9
:103D50004FEA022245EA111545EA10654FEA0026AE
:103D60000EF000419D4208BF964244F1FD0404F567
:103D7000407402D25B084FEA3202B61A65EB0305C3
:103D80005B084FEA32024FF480104FF4002CB6EB80
:103D9000020E75EB030E22BFB61A754640EA0C0000
:103DA0005B084FEA3202B6EB020E75EB030E22BF40
:103DB000B61A754640EA5C005B084FEA3202B6EB81
:103DC000020E75EB030E22BFB61A754640EA9C0040
:103DD0005B084FEA3202B6EB020E75EB030E22BF10
:103DE000B61A754640EADC0055EA060E18D04FEACE
:103DF000051545EA16754FEA06164FEAC30343EA6E
:103E000052734FEAC2025FEA1C1CC0D111F4801F3A
:103E10000BD141EA00014FF000004FF0004CB6E733
:103E200011F4801F04BF01430020B4F1FD0C88BFD2
:103E3000BCF5E06F3FF6AFAEB5EB030C04BFB6EBDD
:103E4000020C5FEA500C50F1000041EB045170BDD0
:103E50000EF0004E4EEA113114EB5C04C2BFD4EBFD
:103E60000C0541EA045170BD41F480114FF0000E81
:103E7000013C90E645EA060E8DE60CEA135594EAFD
:103E80000C0F08BF95EA0C0F3FF43BAF94EA0C0F00
:103E90000AD150EA01347FF434AF95EA0C0F7FF475
:103EA00025AF104619462CE795EA0C0F06D152EAC9
:103EB00003353FF4FDAE1046194622E750EA4106AD
:103EC00018BF52EA43067FF4C5AE50EA41047FF4BE
:103ED0000DAF52EA43057FF4EBAE12E74FF0FF3C23
:103EE00006E000BF4FF0010C02E000BF4FF0010CF4
:103EF0004DF804CD4FEA410C7FEA6C5C4FEA430C6D
:103F000018BF7FEA6C5C1BD001B050EA410C0CBFBB
:103F100052EA430C91EA030F02BF90EA020F00201D
:103F2000704710F1000F91EA030F58BF994208BF84
:103F300090422CBFD8176FEAE37040F00100704741
:103F40004FEA410C7FEA6C5C02D150EA013C07D198
:103F50004FEA430C7FEA6C5CD6D152EA033CD3D0E3
:103F60005DF8040B704700BF8446104662468C46DD
:103F70001946634600E000BF01B5FFF7B7FF002810
:103F800048BF10F1000F01BD4DF808EDFFF7F4FF39
:103F90000CBF012000205DF808FB00BF4DF808EDC4
:103FA000FFF7EAFF34BF012000205DF808FB00BFE7
:103FB0004DF808EDFFF7E0FF94BF012000205DF809
:103FC00008FB00BF4DF808EDFFF7CEFF94BF0120BE
:103FD00000205DF808FB00BF4DF808EDFFF7C4FFB7
:103FE00034BF012000205DF808FB00BF4FEA41020A
:103FF000B2F1E04324BFB3F5001CDCF1FE5C0DD947
:1040000001F0004C4FEAC0024CEA5070B2F1004F90
:1040100040EB830008BF20F00100704711F0804F93
:1040200021D113F13872BCBF01F00040704741F458
:1040300080114FEA5252C2F11802C2F1200C10FA5C
:104040000CF320FA02F018BF40F001004FEAC12340
:104050004FEAD32303FA0CFC40EA0C0023FA02F3E4
:104060004FEA4303CCE77FEA625307D150EA0133BA
:104070001EBF4FF0FE4040F44000704701F000408A
:1040800040F0FE4040F40000704700BF014B18684C
:10409000704700BF60040020706F7766000000006A
:1040A000000000000000304300000000000030C3AA
:0440B00043000000C9
:1040B40000000000010203040102030406070809CA
:1040C4000000010002000400060008000A000C00C1
:1040D400100020004000800000010000CDAB103231
:1040E4000000803F010000000000000024030020C5
:1040F4008C030020F40300200000000000000000F6
:1041040000000000000000000000000000000000AB
:10411400000000000000000000000000B0400008A3
:10412400000000000000000000000000000000008B
:10413400000000000000000000000000000000007B
:10414400000000000000000000000000000000006B
:10415400000000000000000000000000000000005B
:10416400000000000000000000000000000000004B
:10417400000000000000000000000000000000003B
:10418400000000000000000000000000000000002B
:1041940001000000000000000E33CDAB34126DE6C8
:1041A400ECDE05000B000000000000000000000031
:1041B40000000000000000000000000000000000FB
:1041C40000000000000000000000000000000000EB
:1041D40000000000000000000000000000000000DB
:1041E40000000000000000000000000000000000CB
:04451400380000204B
:0400000508000000EF
:00000001FF
